:02000000F72BDC
:1006D2008312A301A4017B2BC730A200702BA20BB3
:1006E2006F2B732B742B01308312A3070318A40AF8
:1006F2000030A40721082402031D812B20082302B5
:10070200031C842B852B6D2B080002308316850079
:10071200831285198D2B8E2B942BB830A0000B30B1
:10072200A1006923982BFF30A700FF30A700831296
:10073200AA01AA0A051605116430A0000030A10022
:1007420069238312051505126430A0000030A10050
:10075200692301308312A5002508AA071A302A024C
:10076200031CB42BB52B9B2BA901A90A0512051159
:100772009030A000E230A10069238312A801A80AE8
:10078200051605113230A0000030A1006923831242
:10079200051505123230A0000030A1006923013096
:1007A2008312A5002508A80733302802031CDA2B80
:1007B200DB2BC12B0130A5002508A9073C302902FB
:1007C200031CE42BE52BB72B831205160511EE3023
:1007D200A0000230A1006923831205150512EE3034
:1007E200A0000230A1006923E52B00288312A60194
:0C07F200A701A801A901AA018301862B20
:08400000FF3FFF3FFF3FFF3FC0
:02400E00D431AB
:00000001FF
